S01900006C63645F737472696E675F7363726F6C6C2E73726563F4
S11300000C942A000C943F000C943F000C943F0085
S11300100C943F000C943F000C943F000C943F0060
S11300200C943F000C943F000C943F000C943F0050
S11300300C943F000C943F000C943F000C943F0040
S11300400C943F000C943F000C943F000C943F0030
S11300500C943F0011241FBECFE5D8E0DEBFCDBF16
S113006010E0A0E6B0E0EEE5F1E002C005900D92EC
S1130070AE36B107D9F70E9480000C94AD000C9401
S1130080000085BB80E282BB2FEF80E792E0215025
S113009080409040E1F700C0000012BA089585BB8B
S11300A080EA82BB2FEF80E792E0215080409040AD
S11300B0E1F700C0000012BA089588E30E944100ED
S11300C081E00E9441008EE00E94410080E80E948D
S11300D0410008950F931F93CF93DF938C01C0E0E9
S11300E0D0E003C00E944F002196F801EC0FFD1FE1
S11300F080818111F7CFDF91CF911F910F910895E6
S11301008FEF84BB80EE81BB15BA12BA0E945D00EA
S113011080E690E00E946A0080B38370823061F4CC
S11301208CE10E9441002FEF80E792E02150804053
S11301309040E1F700C0000080B38370813061F724
S113014088E10E9441002FEF80E792E02150804037
S11101509040E1F700C00000DFCFF894FFCF2D
S111015E487275646179657368204220590007
S9030000FC
