:100000000C942A000C9434000C9434000C943400AA
:100010000C9434000C9434000C9434000C94340090
:100020000C9434000C9434000C9434000C94340080
:100030000C9434000C9434000C9434000C94340070
:100040000C9434000C9434000C9434000C94340060
:100050000C94340011241FBECFE5D8E0DEBFCDBF25
:100060000E9436000C9455000C9400008FEF8ABB60
:1000700087BB84BB81BB1BBA18BA15BA12BA8BB343
:1000800080958BBB88B3809588BB85B3809585BBF5
:1000900082B3809582BB2FEF80E792E021508040B1
:0E00A0009040E1F700C00000EACFF894FFCFD7
:00000001FF
