:100000000C942A000C943F000C943F000C943F0089
:100010000C943F000C943F000C943F000C943F0064
:100020000C943F000C943F000C943F000C943F0054
:100030000C943F000C943F000C943F000C943F0044
:100040000C943F000C943F000C943F000C943F0034
:100050000C943F0011241FBECFE5D8E0DEBFCDBF1A
:1000600010E0A0E6B0E0ECE1F1E002C005900D92F6
:10007000A237B107D9F70E9441000C948C000C9470
:1000800000000E945D0088E60E946C0089E60E94E4
:100090006C0089E40E946C008DE60E946C002FEFDA
:1000A00089E698E1215080409040E1F700C00000CF
:1000B00080E690E00E947000E6CF81B3826081BB51
:1000C00081B38E7F81BB1BB888E18AB986E880BD89
:1000D00010BC83E389B908955D9BFECF8CB9089568
:1000E0000F931F93CF93DF938C01C0E0D0E003C048
:1000F0000E946C002196F801EC0FFD1F8081811198
:10010000F7CF8AE00E946C008DE00E946C00DF91C6
:0C011000CF911F910F910895F894FFCF3C
:10011C0049206D6164652061204C6962726172795D
:02012C000000D1
:00000001FF
