S022000074696D6572305F7661726961626C655F647574795F6379636C652E7372656378
S11300000C942A000C9434000C9434000C943400A6
S11300100C9434000C9434000C9434000C9434008C
S11300200C9434000C9434000C9434000C9434007C
S11300300C9434000C9434000C9434000C9434006C
S11300400C9434000C9434000C9434000C9434005C
S11300500C94340011241FBECFE5D8E0DEBFCDBF21
S11300600E9436000C944F000C94000087B3886003
S113007087BB14BA8AEF8CBF8DE183BF989902C005
S1130080989BFECF999902C0999BFECF9A9902C082
S11300909A9BFECF9B99F2CF9B9BFECFEFCFF89418
S10500A0FFCF8C
S9030000FC
