S0130000756172745F74785F6C63642E7372656378
S11300000C942A000C9434000C9434000C943400A6
S11300100C9434000C9434000C9434000C9434008C
S11300200C9434000C9434000C9434000C9434007C
S11300300C9434000C9434000C9434000C9434006C
S11300400C9434000C9434000C9434000C9434005C
S11300500C94340011241FBECFE5D8E0DEBFCDBF21
S11300600E9482000C949E000C94000085BB80E2E8
S113007082BB2FEF80E792E0215080409040E1F76F
S113008000C0000012BA089585BB80EA82BB2FEF3E
S113009080E792E0215080409040E1F700C00000EA
S11300A012BA089588E30E94360081E00E94360067
S11300B08EE00E94360080E80E94360008951BB846
S11300C088E18AB986E080BD10BC83E389B90895CC
S11300D08CB95E9BFECF2FEF80E792E021508040E9
S11300E09040E1F700C0000008955F9BFECF8CB103
S11300F02FEF30E792E0215030409040E1F700C00C
S1130100000008958FEF84BB82EE81BB12BA15BA4A
S11301100E9452000E945F000E947500C82F0E9436
S113012044008C2F0E9468002FEF83ED90E3215050
S113013080409040E1F700C00000EECFF894FFCF7C
S9030000FC
