S01400006E65775F656570726F6D5F312E737265634F
S11300000C942A000C9447000C9447000C9447006D
S11300100C9447000C9447000C9447000C94470040
S11300200C9447000C9447000C9447000C94470030
S11300300C9447000C9447000C9447000C94470020
S11300400C9447000C9447000C9447000C94470010
S11300500C94470011241FBECFE5D8E0DEBFCDBF0E
S113006011E0A0E6B0E0E2EFF9E002C005900D92E5
S1130070AA3DB107D9F722E0AAEDB1E001C01D9273
S1130080A335B207E1F70E94C0010C94F7040C9465
S113009000001BB888E18AB986E080BD10BC83E308
S11300A089B908958CB95E9BFECF2FEF86E791E066
S11300B0215080409040E1F700C000000895CF93A4
S11300C0DF93EC0103C00E945200219688818111C4
S11300D0FACFDF91CF91089581B1887F81B987E00C
S11300E080B986B7846086BF089584EA86BF06B661
S11300F007FEFDCF089584E986BF089583B984E897
S113010086BF06B607FEFDCF089584E886BF06B60F
S113011007FEFDCF83B1089520E030E01DC0AC019F
S113012041505109241735075CF444EC46BF06B628
S113013007FEFDCF43B1F901E95EFD4F40830AC0DC
S113014044E846BF06B607FEFDCF43B1F901E95EB8
S1130150FD4F40832F5F3F4F2817390704F308955D
S1130160CF93DF93D82FC62F0E947500809116027B
S113017080560E947E008D2F0E947E008C2F0E944C
S11301807E000E947B00DF91CF910895CF93C82F0A
S11301900E9475008091160280560E947E008C2F6A
S11301A00E947E000E947B000E9475008091600086
S11301B080560E947E000E948500CF910895CF92C0
S11301C0DF92FF920F931F93CF93DF93F82E6B016F
S11301D0C0E0D0E01BC00E947500809116028056DA
S11301E00E947E008F2D0E947E00F80180810E9473
S11301F07E000E947B002196F394FFEF20E782E0CB
S1130200F15020408040E1F700C0000086010C0F4F
S11302101D1FF80180818111DECFDF91CF911F91E5
S11302200F91FF90DF90CF9008951F93CF93DF93AA
S1130230182FEB010E9475008091160280560E94CF
S11302407E00812F0E947E000E947B000E94750028
S11302508091600080560E947E00CE010E948C0036
S11302600E947B0081E690E00E945F0067E172E0FB
S11302708AED91E00E9406028AED91E00E945F00FF
S113028080E090E009C0FC01E652FE4F1082FC01C0
S1130290E95EFD4F108201968C339105A4F3DF9142
S11302A0CF911F9108950F931F93CF93C0E000E067
S11302B010E00F5F1F4F6FEF8C2F0E94B000CF5FD5
S11302C08EE20E945200C8018F719927892B21F474
S11302D08AED90E00E945F002FEF80E792E02150CA
S11302E080409040E1F700C00000CF3F11F7CF916C
S11302F01F910F9108950F931F93CF93C0E000E0D7
S113030010E00F5F1F4F8C2F0E94C6001F928F9327
S113031088E790E09F938F938AED91E09F938F936A
S11303200E940D028AED91E00E945F00C8018F7166
S113033099270F900F900F900F900F900F90892B8B
S113034021F48AED90E00E945F0080E090E005C017
S1130350FC01E652FE4F108201968C339105C4F3E2
S1130360CF5F2FEF80E792E0215080409040E1F78B
S113037000C00000CF3F29F6CF911F910F9108953F
S11303808EE781BB82B312BA0E9449000E946C00BE
S11303908799FECF879BFECF8DE790E00E945F0098
S11303A081EA90E00E945F000E9453018BEB90E091
S11303B00E945F000E947B018DED90E00E945F002F
S11303C061E581E10E94B0008DE091E00E945F0050
S11303D081E10E94C600C82F8CE690E00E945F0075
S11303E08C2F0E94520086E591E00E945F0061E834
S11303F071E080E30E94DF0088E991E00E945F00E1
S113040067E170E080E30E941501FFCFFB01DC018E
S113041001900D920020E1F70895AEE0B0E0E3E131
S1130420F2E00C94CE040D891E8986E08C831A8335
S113043009838FEF9FE79E838D83AE01475E5F4FF5
S11304406F89788DCE0101960E942F02EF81F88585
S1130450E00FF11F10822E96E4E00C94EA04ABE066
S1130460B0E0E5E3F2E00C94C0046C017B018A0186
S1130470FC0117821682838181FFCCC1CE010196D3
S11304803C01F6019381F70193FD859193FF8191DE
S11304907F01882309F4BAC1853239F493FD85912B
S11304A093FF81917F01853229F4B60190E00E9487
S11304B02604E7CF912C212C312CFFE1F315D8F041
S11304C08B3279F038F4803279F08332A1F4232D21
S11304D020611DC08D3261F0803369F4232D2160C9
S11304E016C0832D8260382EE32DE4603E2E2AC090
S11304F0F32DF8601DC037FC2DC020ED280F2A30E5
S113050040F08E32B9F436FC81C1232D2064322EA2
S113051019C036FE06C08AE0989E200D1124922E42
S113052011C0EAE02E9E200D1124222EF32DF0623C
S11305303F2E08C08C3621F4832D8068382E02C0EB
S1130540883641F4F70193FD859193FF81917F01F2
S11305508111B3CF982F9F7D9554933028F40C5F6D
S11305601F4F9FE399830DC0833631F0833771F0B9
S1130570833509F059C021C0F801808189830E5F59
S11305801F4F88248394912C530113C02801F2E057
S11305904F0E511CF801A080B18036FE03C0692DB6
S11305A070E002C06FEF7FEFC5010E941B044C0195
S11305B08201F32DFF773F2E16C0280122E0420E60
S11305C0511CF801A080B18036FE03C0692D70E093
S11305D002C06FEF7FEFC5010E9410044C01F32DA0
S11305E0F0683F2E820133FC1BC0822D90E08816F8
S11305F09906B0F4B60180E290E00E9426042A94A1
S1130600F4CFF50137FC859137FE81915F01B60186
S113061090E00E94260421102A9421E0821A910875
S11306208114910471F7E8C0843611F0893641F5DC
S1130630F80137FE07C060817181828193810C5F6C
S11306401F4F08C060817181072E000C880B990B25
S11306500E5F1F4FF32DFF763F2E97FF09C0909535
S11306608095709561957F4F8F4F9F4FF0683F2E17
S11306702AE030E0A3010E946204882E861845C057
S1130680853731F4232D2F7EB22E2AE030E025C0A9
S1130690932D997FB92E8F36C1F018F4883579F0EF
S11306A0B5C0803719F0883721F0B0C0E92FE06178
S11306B0BE2EB4FE0DC0FB2DF460BF2E09C034FE67
S11306C00AC0292F2660B22E06C028E030E005C0FB
S11306D020E130E002C020E132E0F801B7FE07C0BB
S11306E060817181828193810C5F1F4F06C060819C
S11306F0718180E090E00E5F1F4FA3010E946204AD
S1130700882E8618FB2DFF773F2E36FE0DC0232D35
S11307102E7FA22E891458F434FE0BC032FC09C07B
S1130720832D8E7EA82E05C0B82CA32C03C0B82C14
S113073001C0B92CA4FE0FC0FE01E80DF11D80819B
S1130740803321F49A2D997EA92E09C0A2FE06C0F9
S1130750B394B39404C08A2D867809F0B394A3FCAF
S113076011C0A0FE06C0B21488F4280C922C9B1869
S11307700EC0B21460F4B60180E290E00E94260438
S1130780B394F7CFB21418F42B1802C0982C212C70
S1130790A4FE10C0B60180E390E00E942604A2FEED
S11307A017C0A1FC03C088E790E002C088E590E090
S11307B0B6010CC08A2D867859F0A1FE02C08BE2E6
S11307C001C080E2A7FC8DE2B60190E00E942604FD
S11307D0891438F4B60180E390E00E9426049A94C8
S11307E0F7CF8A94F301E80DF11D8081B60190E002
S11307F00E9426048110F5CF222009F442CEB601CE
S113080080E290E00E9426042A94F6CFF6018681C5
S1130810978102C08FEF9FEF2B96E2E10C94DC04EA
S1130820FC010590615070400110D8F780959095B7
S11308308E0F9F1F0895FC016150704001900110BC
S1130840D8F7809590958E0F9F1F08950F931F934F
S1130850CF93DF93FB01238121FD03C08FEF9FEF33
S11308602CC022FF16C0468157812481358142174E
S1130870530744F4A081B1819D012F5F3F4F318321
S113088020838C93268137812F5F3F4F37832683C4
S113089014C08B01EC01FB010084F185E02D099566
S11308A0892BE1F6D80116968D919C9117970196A4
S11308B017969C938E931697CE01DF91CF911F913B
S11308C00F910895FA01AA27283051F1203181F1BE
S11308D0E8946F936E7F6E5F7F4F8F4F9F4FAF4F44
S11308E0B1E03ED0B4E03CD0670F781F891F9A1F57
S11308F0A11D680F791F8A1F911DA11D6A0F711D0B
S1130900811D911DA11D20D009F468943F912AE016
S1130910269F11243019305D3193DEF6CF010895FE
S1130920462F4770405D4193B3E00FD0C9F7F6CF2F
S1130930462F4F70405D4A3318F0495D31FD4052F7
S1130940419302D0A9F7EACFB4E0A695979587958D
S113095077956795BA95C9F700976105710508956C
S11309609B01AC010A2E0694579547953795279518
S1130970BA95C9F7620F731F841F951FA01D0895B0
S11309802F923F924F925F926F927F928F929F929B
S1130990AF92BF92CF92DF92EF92FF920F931F9389
S11309A0CF93DF93CDB7DEB7CA1BDB0B0FB6F8943A
S11309B0DEBF0FBECDBF09942A88398848885F847A
S11309C06E847D848C849B84AA84B984C884DF80EB
S11309D0EE80FD800C811B81AA81B981CE0FD11DCF
S11309E00FB6F894DEBF0FBECDBFED010895F894A5
S10509F0FFCF33
S11309F20153657175656E7469616C20446174613B
S1130A0220526561643A2000253032580041543244
S1130A12344330322045787465726E616C204545EA
S1130A2250524F4D2054657374696E670A0D0A0D56
S1130A320045726173696E672045787465726E61F0
S1130A426C20454550524F4D0A0D000A0D0A0D20E7
S1130A5252656164696E672065787465726E616C53
S1130A6220454550524F4D200A0D0A0D000A0D0A29
S1130A720D2057726974696E672073696E676C65BD
S1130A82204461746120746F2065457465726E61DF
S1130A926C20454550524F4D2E2E2E2E0053696E1A
S1130AA2676C652044617461205772697474656E61
S1130AB20A0D0A0D2052656164696E672053696EDE
S1130AC2676C6520446174612066726F6D2065787D
S1130AD27465726E616C20454550524F4D2E2E2E18
S1130AE22E0A0D0A0D000A0D0A0D20577269746947
S1130AF26E6720737472696E6720746F20657874F0
S1130B0265726E616C20454550524F4D2E2E2E2E2D
S1130B120049206F766520456D62656464656420D2
S1130B2253797374656D7300537472696E672057D9
S1130B3272697474656E200A0D0A0D20526561642F
S1130B42696E6720537472696E672066726F6D20D6
S1130B5265787465726E613B20454550524F4D2E47
S10D0B622E2E2E2E0A0D0A0D00009F
S9030000FC
