S00D00007377315F322E737265636B
S11300000C942A000C9434000C9434000C943400A6
S11300100C9434000C9434000C9434000C9434008C
S11300200C9434000C9434000C9434000C9434007C
S11300300C9434000C9434000C9434000C9434006C
S11300400C9434000C9434000C9434000C9434005C
S11300500C94340011241FBECFE5D8E0DEBFCDBF21
S11300600E9436000C9451000C94000083E087BB7E
S113007011BA18BA80B38370823021F488B38160D6
S113008088BB03C088B38E7F88BB80B38370813004
S113009021F488B3826088BBEDCF88B38D7F88BBA1
S10900A0E9CFF894FFCF44
S9030000FC
