S00F00006932635F5254432E73726563CF
S11300000C942A000C943F000C943F000C943F0085
S11300100C943F000C943F000C943F000C943F0060
S11300200C943F000C943F000C943F000C943F0050
S11300300C943F000C943F000C943F000C943F0040
S11300400C943F000C943F000C943F000C943F0030
S11300500C943F0011241FBECFE5D8E0DEBFCDBF16
S113006010E0A0E6B0E0E4E1F1E002C005900D92FA
S1130070A838B107D9F70E946E000C9488000C943C
S1130080000081B3826081BB81B38E7F81BB8BB161
S11300908BB98AB188618AB980B5866880BD10BC85
S11300A083E389B908958CB95D9BFECF08955F9B66
S11300B0FECF8CB10895CF93DF93EC0103C00E946F
S11300C05300219688818111FACF8AE00E9453005F
S11300D08DE00E945300DF91CF9108950E9441006A
S11300E080E690E00E945B000E945700C82F84E7DE
S11300F090E00E945B008C2F0E9453002FEF89E652
S113010098E1215080409040E1F700C00000E8CF22
S1070110F894FFCF8D
S1130114456E74657220612043686172616374651D
S1130124723A20005468652063686172616374657F
S10B0134722069733A200000F7
S9030000FC
