:100000000C942A000C9434000C9434000C943400AA
:100010000C9434000C9434000C9434000C94340090
:100020000C9434000C9434000C9434000C94340080
:100030000C9434000C9434000C9434000C94340070
:100040000C9434000C9434000C9434000C94340060
:100050000C94340011241FBECFE5D8E0DEBFCDBF25
:100060000E9436000C945B000C94000081B3806207
:1000700081BB81B38C7F81BB82E88FBD8BE18EBD5C
:1000800083EC99E097BD86BD8AEB90E09BBD8ABD6D
:1000900004C081E490E09BBD8ABD809BFACF04C080
:1000A0008CE291E09BBD8ABD819BFACF8AEB90E008
:0A00B0009BBD8ABDF2CFF894FFCF8C
:00000001FF
