S014000074696D6572315F64656C61792E7372656350
S11300000C942A000C9434000C9434000C943400A6
S11300100C9434000C9434000C9434000C9434008C
S11300200C9434000C9434000C9434000C9434007C
S11300300C9434000C9434000C9434000C9434006C
S11300400C9434000C9434000C9434000C9434005C
S11300500C94340011241FBECFE5D8E0DEBFCDBF21
S11300600E943F000C944D000C9400001DBC1CBC6D
S113007008B602FEFDCF88B7846088BF089581B3B7
S1130080816081BB12BA1FBC82E08EBD92B381E055
S1110090892782BB0E943600F9CFF894FFCF77
S9030000FC
