:100000000C942A000C9447000C9447000C94470071
:100010000C9447000C9447000C9447000C94470044
:100020000C9447000C9447000C9447000C94470034
:100030000C9447000C9447000C9447000C94470024
:100040000C9447000C9447000C9447000C94470014
:100050000C94470011241FBECFE5D8E0DEBFCDBF12
:1000600010E0A0E6B0E0E6ECF2E002C005900D92F0
:10007000A83AB107D9F720E0A8EAB0E001C01D9284
:10008000AA3AB207E1F70E9451010C9461010C9465
:10009000000081B3826081BB81B38E7F81BB82B35C
:1000A0008C7F82BB1BB888E18AB986E080BD10BC1A
:1000B00083E389B908958CB95E9BFECF2FE788E36F
:1000C00091E0215080409040E1F700C00000089589
:1000D0001ABA1BBA80E687B987E886B9089586B14F
:1000E000806486B924B1229526952695237085B122
:1000F00090E0880F991F880F991F822B08950F9306
:100100001F93CF93DF938C01C0E0D0E003C00E9427
:100110005B002196F801EC0FFD1F80818111F7CF64
:100120008AE00E945B008DE00E945B00DF91CF912E
:100130001F910F9108950E946F009093A9008093E2
:10014000A8009C012C5331092330310528F480E6A6
:1001500090E00E947F0008959C01275531092230CC
:10016000310528F484E690E00E947F0008959C0108
:10017000235931092330310528F488E690E00E94A4
:100180007F0008959C01295E31402730310528F415
:100190008CE690E00E947F0008959C012154310973
:1001A0002330310528F480E790E00E947F00089515
:1001B0009C012F5531092330310528F484E790E064
:1001C0000E947F0008959C01225B31092330310594
:1001D00028F488E790E00E947F0008959C01275F43
:1001E00033402330310528F48CE790E00E947F00F3
:1001F00008959C01285331092430310528F480E802
:1002000090E00E947F000895AC014F5451094530A1
:10021000510528F484E890E00E947F000895AC0125
:10022000415851094430510528F488E890E00E9473
:100230007F000895AC01405551404530510528F4E8
:100240008CE890E00E947F0008952430310528F466
:1002500080E990E00E947F0008959C012E543109AE
:100260002330310528F484E990E00E947F0008954E
:100270009C01275731092530310528F488E990E0A1
:100280000E947F00089589539140049728F48CE9D7
:1002900090E00E947F00089580EA90E00E947F0035
:1002A00008950E9449000E9468000E949B002FEF61
:1002B00089E698E1215080409040E1F700C00000BD
:0602C000F4CFF894FFCF1B
:1002C600300D0A00310D0A00320D0A00330D0A0006
:1002D600340D0A00350D0A00360D0A00370D0A00E6
:1002E600380D0A00390D0A00410D0A00420D0A00B8
:1002F600430D0A00440D0A00450D0A00460D0A008A
:080306004E6F6E650D0A000048
:00000001FF
