:100000000C942A000C9434000C9434000C943400AA
:100010000C9434000C9434000C9434000C94340090
:100020000C9434000C9434000C9434000C94340080
:100030000C9434000C9434000C9434000C94340070
:100040000C9434000C9434000C9434000C94340060
:100050000C94340011241FBECFE5D8E0DEBFCDBF25
:100060000E9436000C945A000C94000087B38860FC
:1000700087BB83B7846683BF80E090E008C08CBFF5
:10008000EFE1FEE43197F1F700C0000001968F3FE9
:100090009105A9F3A4F38FEF90E008C08CBFEFE1C6
:1000A000FEE43197F1F700C000000197823091051E
:0800B000ACF7E2CFF894FFCF9A
:00000001FF
