S019000074696D6572305F61735F636F756E7465722E7372656328
S11300000C942A000C9434000C9434000C943400A6
S11300100C9434000C9434000C9434000C9434008C
S11300200C9434000C9434000C9434000C9436007A
S11300300C9434000C9434000C9434000C9434006C
S11300400C9434000C9434000C9434000C9434005C
S11300500C94340011241FBECFE5D8E0DEBFCDBF21
S11300600E9458000C946C000C9400001F920F9294
S11300700FB60F9211242F938F939F9388B38260AE
S113008088BB2FEF83ED90E3215080409040E1F74F
S113009000C0000088B38D7F88BB88B7816088BFAB
S11300A09F918F912F910F900FBE0F901F901895D5
S11300B0789487B38E7F87BB87B3826087BB18BA77
S11300C087E083BF81E089BF89EF82BF08B600FE65
S10F00D0FDCF89EF82BFFACFF894FFCF78
S9030000FC
