:100000000C942A000C9434000C9434000C943400AA
:100010000C9434000C9434000C9434000C94340090
:100020000C9434000C9434000C9434000C94340080
:100030000C9434000C9434000C9434000C94340070
:100040000C9434000C9434000C9434000C94340060
:100050000C94340011241FBECFE5D8E0DEBFCDBF25
:100060000E9481000C9487000C940000982F907FD0
:1000700092BB20E22BBBEFE1FEE43197F1F700C029
:1000800000001BBAF0E18F9FC001112482BB2BBB83
:100090008FE19EE40197F1F700C000001BBA0895BC
:1000A000982F907F92BB30EA3BBBEFE1FEE43197A3
:1000B000F1F700C0000020E82BBBF0E18F9FC001EA
:1000C000112482BB3BBB8FE19EE40197F1F700C096
:1000D00000002BBB089581B3806F81BB8AB3806E13
:1000E0008ABB82E00E94360088E20E9436008EE0E1
:1000F0000E94360081E00E94360080E80E943600AF
:1001000008950E946B0088E40E945000FFCFF8948D
:02011000FFCF1F
:00000001FF
