S01000006C63645F346269742E737265630F
S11300000C942A000C943F000C943F000C943F0085
S11300100C943F000C943F000C943F000C943F0060
S11300200C943F000C943F000C943F000C943F0050
S11300300C943F000C943F000C943F000C943F0040
S11300400C943F000C943F000C943F000C943F0030
S11300500C943F0011241FBECFE5D8E0DEBFCDBF16
S113006010E0A0E6B0E0E8EAF1E002C005900D92ED
S1130070AC37B107D9F70E949E000C94D2000C94BF
S11300800000982F907F95BB20E222BB3FEF40E712
S113009092E0315040409040E1F700C0000012BAB5
S11300A030E1839FC001112485BB22BB4FEF80E761
S11300B092E0415080409040E1F700C0000012BA45
S11300C00895982F907F95BB20EA22BB3FEF40E72D
S11300D092E0315040409040E1F700C0000012BA75
S11300E030E1839FC001112485BB22BB12BA08955D
S11300F082E00E94410088E20E9441008EE00E945A
S1130100410081E00E94410080E80E94410008957E
S11301100F931F93CF93DF938C01C0E0D0E003C013
S11301200E9461002196F801EC0FFD1F808181116E
S1130130F7CFDF91CF911F910F91089580EF84BB8A
S113014080EE81BB15BA12BA0E94780080E690E076
S11301500E94880080EC0E9441008EE690E00E949C
S1130160880080B38370823061F48CE10E94410086
S11301702FEF80E792E0215080409040E1F700C0EB
S1130180000080B38370813061F788E10E944100F0
S11301902FEF80E792E0215080409040E1F700C0CB
S10B01A00000DFCFF894FFCF4B
S11301A84872756461796573682042205900454333
S10F01B84520456E67696E6565720000A5
S9030000FC
