S0190000756172745F737472696E675F72785F74782E73726563C5
S11300000C942A000C9434000C9434000C943400A6
S11300100C9434000C9434000C9434000C9434008C
S11300200C9434000C9434000C9434000C9434007C
S11300300C9434000C9434000C9434000C9434006C
S11300400C9434000C9434000C9434000C9434005C
S11300500C94340011241FBECFE5D8E0DEBFCDBF21
S11300600E9453000C94A1000C9400008CB95E9B78
S1130070FECF2FEF80E792E0215080409040E1F7DF
S113008000C0000008955F9BFECF8CB1089580E20C
S113009081BB12BA1BB888E18AB986E080BD10BC66
S11300A083E389B90895CF93DF93CDB7DEB7C45600
S11300B0D1090FB6F894DEBF0FBECDBF0E94470032
S11300C000E010E00E9443008D3041F0E1E0F0E0F8
S11300D0EC0FFD1FE00FF11F808307C0E1E0F0E0AB
S11300E0EC0FFD1FE00FF11F10820F5F1F4F8D30CB
S11300F049F700E010E00DC00E9436002FEF80E7C2
S113010092E0215080409040E1F700C000000F5F72
S11301101F4FE1E0F0E0EC0FFD1FE00FF11F8081C5
S11301208111EACF80E090E008C0E1E0F0E0EC0F5C
S1130130FD1FE00FF11F1082019684369105ACF388
S1090140C1CFF894FFCFCB
S9030000FC
